{
  "_format": "hh-sol-artifact-1",
  "contractName": "ReceiveToken",
  "sourceName": "contracts/ReceiveToken.sol",
  "abi": [
    {
      "inputs": [
        {
          "internalType": "address",
          "name": "_erc1155",
          "type": "address"
        },
        {
          "internalType": "uint256",
          "name": "_tokenId",
          "type": "uint256"
        }
      ],
      "name": "checkBalance",
      "outputs": [
        {
          "internalType": "uint256",
          "name": "",
          "type": "uint256"
        }
      ],
      "stateMutability": "view",
      "type": "function"
    },
    {
      "inputs": [
        {
          "internalType": "address",
          "name": "",
          "type": "address"
        },
        {
          "internalType": "address",
          "name": "",
          "type": "address"
        },
        {
          "internalType": "uint256[]",
          "name": "",
          "type": "uint256[]"
        },
        {
          "internalType": "uint256[]",
          "name": "",
          "type": "uint256[]"
        },
        {
          "internalType": "bytes",
          "name": "",
          "type": "bytes"
        }
      ],
      "name": "onERC1155BatchReceived",
      "outputs": [
        {
          "internalType": "bytes4",
          "name": "",
          "type": "bytes4"
        }
      ],
      "stateMutability": "nonpayable",
      "type": "function"
    },
    {
      "inputs": [
        {
          "internalType": "address",
          "name": "",
          "type": "address"
        },
        {
          "internalType": "address",
          "name": "",
          "type": "address"
        },
        {
          "internalType": "uint256",
          "name": "",
          "type": "uint256"
        },
        {
          "internalType": "uint256",
          "name": "",
          "type": "uint256"
        },
        {
          "internalType": "bytes",
          "name": "",
          "type": "bytes"
        }
      ],
      "name": "onERC1155Received",
      "outputs": [
        {
          "internalType": "bytes4",
          "name": "",
          "type": "bytes4"
        }
      ],
      "stateMutability": "nonpayable",
      "type": "function"
    },
    {
      "inputs": [
        {
          "internalType": "bytes4",
          "name": "interfaceId",
          "type": "bytes4"
        }
      ],
      "name": "supportsInterface",
      "outputs": [
        {
          "internalType": "bool",
          "name": "",
          "type": "bool"
        }
      ],
      "stateMutability": "view",
      "type": "function"
    }
  ],
  "bytecode": "0x608060405234801561001057600080fd5b50610893806100206000396000f3fe608060405234801561001057600080fd5b506004361061004c5760003560e01c806301ffc9a7146100515780634d7b9bd514610081578063bc197c81146100b1578063f23a6e61146100e1575b600080fd5b61006b6004803603810190610066919061059a565b610111565b6040516100789190610651565b60405180910390f35b61009b6004803603810190610096919061055e565b61018b565b6040516100a89190610687565b60405180910390f35b6100cb60048036038101906100c69190610410565b61022a565b6040516100d8919061066c565b60405180910390f35b6100fb60048036038101906100f691906104cf565b61023f565b604051610108919061066c565b60405180910390f35b60007f4e2312e0000000000000000000000000000000000000000000000000000000007bffffffffffffffffffffffffffffffffffffffffffffffffffffffff1916827bffffffffffffffffffffffffffffffffffffffffffffffffffffffff19161480610184575061018382610254565b5b9050919050565b60008083905060008173ffffffffffffffffffffffffffffffffffffffff1662fdd58e33866040518363ffffffff1660e01b81526004016101cd929190610628565b60206040518083038186803b1580156101e557600080fd5b505afa1580156101f9573d6000803e3d6000fd5b505050506040513d601f19601f8201168201806040525081019061021d91906105c3565b9050809250505092915050565b600063bc197c8160e01b905095945050505050565b600063f23a6e6160e01b905095945050505050565b60007f01ffc9a7000000000000000000000000000000000000000000000000000000007bffffffffffffffffffffffffffffffffffffffffffffffffffffffff1916827bffffffffffffffffffffffffffffffffffffffffffffffffffffffff1916149050919050565b60006102d16102cc846106c7565b6106a2565b905080838252602082019050828560208602820111156102f057600080fd5b60005b85811015610320578161030688826103e6565b8452602084019350602083019250506001810190506102f3565b5050509392505050565b600061033d610338846106f3565b6106a2565b90508281526020810184848401111561035557600080fd5b610360848285610798565b509392505050565b60008135905061037781610818565b92915050565b600082601f83011261038e57600080fd5b813561039e8482602086016102be565b91505092915050565b6000813590506103b68161082f565b92915050565b600082601f8301126103cd57600080fd5b81356103dd84826020860161032a565b91505092915050565b6000813590506103f581610846565b92915050565b60008151905061040a81610846565b92915050565b600080600080600060a0868803121561042857600080fd5b600061043688828901610368565b955050602061044788828901610368565b945050604086013567ffffffffffffffff81111561046457600080fd5b6104708882890161037d565b935050606086013567ffffffffffffffff81111561048d57600080fd5b6104998882890161037d565b925050608086013567ffffffffffffffff8111156104b657600080fd5b6104c2888289016103bc565b9150509295509295909350565b600080600080600060a086880312156104e757600080fd5b60006104f588828901610368565b955050602061050688828901610368565b9450506040610517888289016103e6565b9350506060610528888289016103e6565b925050608086013567ffffffffffffffff81111561054557600080fd5b610551888289016103bc565b9150509295509295909350565b6000806040838503121561057157600080fd5b600061057f85828601610368565b9250506020610590858286016103e6565b9150509250929050565b6000602082840312156105ac57600080fd5b60006105ba848285016103a7565b91505092915050565b6000602082840312156105d557600080fd5b60006105e3848285016103fb565b91505092915050565b6105f581610724565b82525050565b61060481610736565b82525050565b61061381610742565b82525050565b6106228161078e565b82525050565b600060408201905061063d60008301856105ec565b61064a6020830184610619565b9392505050565b600060208201905061066660008301846105fb565b92915050565b6000602082019050610681600083018461060a565b92915050565b600060208201905061069c6000830184610619565b92915050565b60006106ac6106bd565b90506106b882826107a7565b919050565b6000604051905090565b600067ffffffffffffffff8211156106e2576106e16107d8565b5b602082029050602081019050919050565b600067ffffffffffffffff82111561070e5761070d6107d8565b5b61071782610807565b9050602081019050919050565b600061072f8261076e565b9050919050565b60008115159050919050565b60007fffffffff0000000000000000000000000000000000000000000000000000000082169050919050565b600073ffffffffffffffffffffffffffffffffffffffff82169050919050565b6000819050919050565b82818337600083830152505050565b6107b082610807565b810181811067ffffffffffffffff821117156107cf576107ce6107d8565b5b80604052505050565b7f4e487b7100000000000000000000000000000000000000000000000000000000600052604160045260246000fd5b6000601f19601f8301169050919050565b61082181610724565b811461082c57600080fd5b50565b61083881610742565b811461084357600080fd5b50565b61084f8161078e565b811461085a57600080fd5b5056fea264697066735822122031530f9dc064d887c62b3cdcb8409340756b46a0263e5392dbda32dac65a599d64736f6c63430008010033",
  "linkReferences": {},
  "deployedLinkReferences": {}
}